:10000000A80904000000000000000000000000003B
:1000100000000000000000000000000000000000E0
:1000200000000000000000000000000000000000D0
:100030000000000086090000000000000000000031
:1000400000000000000000000000000000000000B0
:1000500000000000000000000000000000000000A0
:100060000000000000000000000000000000000090
:100070000000000000000000000000000000000080
:101350006F812000F0FF200020A0B70000002000D7
:1013600034A0B700400020004420B700AA0A0200C1
:10137000000000008A1F78008B1F78008C1F780007
:101380008D1F7800C002A800C9E2A800C9C2A90048
:1013900080702000CAA6B700C9A2A900C982A9000E
:1013A000CD82A800CDA2A8003D002000CC012000E5
:1013B0000B4020000A0220000020EF00801F780070
:1013C00000042000801F78000020EF00801F7800BC
:1013D0000020EF00801F7800EFFE07008F00B100B3
:1013E00008FF0700C9E2A900CDE2A900CDC2A8000C
:1013F0000240800013408000304080004140800067
:1014000091FD070050408800614088005080200016
:10141000104078006104E10031003A005180200062
:101420000020EF0080487800A0408000CF80DE00E0
:101430000081EB0078FE070092FF2000930C24004F
:10144000EFFB07005240800063408000ECFB070088
:101450000005BE00F5FE0700020020000350240036
:10146000E7FB0700020020000350240071FC070086
:101470000005BE006EFF07002BFE070090408800AD
:101480001100200040812000108840004080200092
:101490009040780050C4B300000CE10003003A0013
:1014A000418020000020EF0080487800CD82A90014
:1014B00001002300208120001080700000057800CA
:1014C000CCFE0700CDA2A900370020000E20ED00C1
:1014D000FEFF3A0000000000CDA2A800CD82A800C7
:1014E000CAFF3700CF0678004F067800CF05780096
:0814F0004F057800FFFF3700F3
:100F98000000FA00CEB897003EBA97002EB9970025
:100FA8009EB997004022EF004222EF00C050200077
:100FB80080408800A07F2000704088000B007500EA
:100FC8000C0070000D00700001007000040070003B
:100FD80082007000202420000388700040C2A9000D
:0C0FE80041E2A8000080FA0000000600B2
:101004000000280004A1B7009460A8008460A9002F
:1010140001002100400A20001088700000192000FF
:0810240002A1B7000000060064
:101230000000FA00C758DE000001EB00F00F2000AC
:1012400080806000F007200000805000800078005F
:101250006000E10010003D000420EF000620EF00D8
:101260000A00BE00E7FD07000000E0000060EF009C
:1012700001003D000060EC000040E200030032008D
:101280000000200001F82B001E0037000020EF00B6
:101290000220EF001B0037007808E1000200360052
:1012A0000A00BE00170037008A9FBE000A00BE0079
:1012B0009DFE07000081EB00D7FE07004F05BE0032
:1012C0000002BE00849FBE000A01BE002DFF070081
:1012D0000000E0000060EF00010034000060EC005E
:1012E0004F02BE000040E200050032000200200074
:1012F00003F823000400BE00BDFD07000100370015
:0C1300000400BE000080FA00000006009F
:100D28000000FA00020007000807040000000000A5
:100D38000081BE001F0007000470A70003F0A10097
:100D48006509B100160032000D0035006828E10081
:100D580006003500F0FF2F00F1FF27000600E20033
:100D680013003B00010028000000050000004000BF
:100D7800818048008502E900FCFF3A00080037003E
:100D8800F88F420002003C008000EB0000000500E4
:100D98008100D1000080D3008502E800FCFF3A0002
:100DA8000600E20002003B0060001000E08018002E
:100DB80000000600C70ADE00F107B200F50FB20016
:100DC80008003200E1CF42000200320002E0A80031
:100DD80024000500810F700001003200040805009E
:100DE80044000500810F700002003A00140005005D
:100DF8008502E9000000400081C04800FCFF3B007C
:100E080002E0A800240005000080FA0000000600A7
:000E1800DA
:100E18000000FA0002000700BE07040000000000FE
:100E28000400E20006003A000005EB000200E200C0
:100E38000F003E000000E200270032000C003700DF
:100E4800A10088000200E2000400350008003C0010
:100E58000000E200200032000500370060001000AA
:100E6800E080180002003B0001F02C001A00370057
:100E78000084BE006011B8006B0920000982CF0011
:100E8800020039000882CF000441B00069425200D4
:100E98000E00320008003B0082817100610164008D
:100EA8008904D1000884D3008B05E8000442E800D7
:100EB800F9FF3A00050037000804440089844C0013
:100EC8008B05E9000442E900FBFF3A000300070034
:100ED8000AF0A70003E0A800000006008100200037
:100EE800618055000B003D000B00200061FE2F00C3
:100EF8000100E1001D00340082817100610164007D
:100F08008904D1000884D3000000E800FAFF3A0001
:100F1800710020006100640003007000020060009E
:100F28000900320061044400E0844C000988A500EF
:100F3800050032008B05E8006808E10002003A006D
:100F48008904D1000884D300F20F20000258E10080
:100F580005003D00C75DDD00F907B2008980750016
:100F680008008800000006000BF827001B00880016
:0C0F7800000005000080FA0000000600E8
:100F84000000FA00F4FF2F005FFE07000080FA0063
:040F94000000060053
:10090C000000FA0002000700F404040000000000DC
:10091C00841F7800140007004F007800110033008A
:10092C00F0FF2F00838F6C0006003B000405650070
:10093C000A00A7000800370009F0A60010002000EC
:10094C0008003700820F5400838F5C0003003900CD
:10095C001000200001003E000000200009F0A7005C
:10096C000000EA00000006000084BE00060007003C
:10097C000083BE000485BE000280BE00020007009A
:10098C00844F750000000600C70ADE00F107B200B4
:10099C00F50FB20008003200E1CF42000200320035
:1009AC0002E0A80024000500810F70000100320055
:1009BC000408050044000500810F700002003A0095
:1009CC00140005008502E9000000400081C04800C9
:1009DC00FCFF3B0002E0A800240005000080FA00A8
:0409EC000000060001
:1009F0000000FA0007E0AA000EFF07000080FA00DE
:040A000000000600EC
:100634000000FA0002000700820404000000000029
:10064400889FBE008A9FBE008C1F78005900070057
:10065400600033006450E1004F0032006420E10088
:100664005200320003826C0007003B000905D000F1
:100674000306D000820F54000C065D00020039000E
:100684000200320039008800C300880085825500CA
:1006940004003D000003FD008103FD008502EA0023
:1006A4008B854200840F720002003B006000100042
:1006B400E08018006011B8000005EB007A28E10022
:1006C4000A00390006008800C75DDD00F707B200A4
:1006D400878075002D003700828171002A00880010
:1006E400610560008180D1000080D3008502E900AB
:1006F400F9FF3B00060440008784480002003B00E9
:1007040060041400E0841C000988A3000700320080
:100714008A81710082817100610164008904D100C1
:100724000884D3008B05E800170037000978A3007C
:1007340013003A001600E200130034008B05E900B0
:100744000804440089844C000A4474000978A30016
:100754000D003A001600E200070034008B05E900A2
:100764000804440089844C0001003A000B00200076
:100774000978A300F7FF32000001EB000200370004
:10078400828171002A008800220007000CF0A70073
:1007940003E0A800180037006420E10002003A00DA
:1007A400838F6C00180033000881BE000280BE00F5
:1007B400110037000084BE003C0007000083BE0027
:1007C4000485BE000280BE0038000700844F750017
:1007D400000006000280BE006450E10005003600FF
:1007E4006420E100020036000968A30001003A0019
:1007F4000880BE0002C0A8004F0678004F05BE0066
:100804004F04BE0000000600F0FF2F00F1FF270098
:10081400F9FF370081002000618055000B003D0086
:100824000B00200061FE2F000100E1001D003400D8
:1008340082817100610164008904D1000884D300BD
:100844000000E800FAFF3A00710020006100640033
:1008540003007000020060000900320061044400DB
:10086400E0844C000988A500050032008B05E800EF
:100874006808E10002003A008904D1000884D3002A
:10088400F20F20000258E10005003D00C75DDD00C5
:10089400F907B2008980750008008800000006008E
:1008A4000BF827001B00880000000500C70ADE00C3
:1008B400F107B200F50FB20008003200E1CF4200A8
:1008C4000200320002E0A80024000500810F70003D
:1008D400010032000408050044000500810F700087
:1008E40002003A00140005008502E90000004000FF
:1008F40081C04800FCFF3B0002E0A8002400050082
:080904000080FA00000006006B
:100A04000000FA0014002000BFFF07000080FA0075
:040A140000000600D8
:10102C000600FA008C1F78008D1F78000020EF005E
:10103C00404798008A9FBE000420EF000620EF0076
:10104C000A00BE006CFE07000000E0000060EF002C
:10105C0001003D000060EC004F05BE000040E200C6
:10106C0007003200000020000100280000006D0085
:10107C0081806D000005BE0010C0B3004047980091
:10108C008A9FBE000A00BE0032982F0023E2230084
:10109C00D8FC07004F05BE000005BE008A9FBE00AD
:1010AC000005BE005F0007004F05BE008A9FBE0012
:1010BC000001BE000A00BE004AFE0700020020002C
:1010CC0003082400CBFC07004F05BE000005BE0042
:1010DC008A9FBE000200200003002400A6FF070028
:1010EC000000E0000060EF00010034000060EC0044
:1010FC004F05BE000040E2000D003200020020004F
:10110C00030024008A9FBE000A00BE0035FE0700C3
:10111C004F05BE000005BE004E4090000040E200AE
:10112C000060EF0001003A000060EC0040479800BE
:10113C008A9FBE000200200003F823000A00BE00B4
:10114C008DFF07000000E0000060EF00010034009C
:10115C000060EC004F05BE000040E20007003200CA
:10116C0000002000010024008A9FBE000A01BE007E
:10117C001CFE07004F05BE000005BE008A9FBE0086
:10118C000A00BE000A01BE009AFC07000007980086
:10119C00110798004D002000CCA728000005BE00C8
:1011AC00C1FE07004F05BE008A9FBE000A01BE00AB
:1011BC0090FC07004F05BE000005BE008A9FBE00D4
:1011CC003D0020000CA928000E0590009E05900003
:1011DC00B5FE07004F05BE008A9FBE000001BE0091
:1011EC000A00BE0015FE07004F05BE000005BE003C
:1011FC00640047001004E0000500320000002000ED
:10120C000100280000006D0081806D000100370096
:10121C000A00BE00CF0678004F0678000080FA0066
:04122C0000000600B8
:100CB4000000FA004268DD00000146001200BE0098
:100CC4000001BE001A00E200130032008C9FBE0037
:100CD4008A9FBE000200BE000A01BE00C7FD0700D5
:100CE4004F05BE004F06BE006181560082067800A3
:100CF4004269DD00020246001401BE008C9FBE0062
:100D04008A9FBE004AFE07004F05BE004F06BE0084
:100D14000001BE00EBFF37000200BE000080FA00B5
:040D240000000600C5
:100400000000FA00020007001603040000000000CC
:10041000889FBE008A9FBE008C1F780030000700B6
:100420003700330003866C006450E1002400320082
:100430006420E100270032006150E1002200320018
:100440006120E100210032008B854200EB07B10002
:100450000134B800003AB8000804420089844A0018
:10046000013AB8000030B8008880400009014A0015
:100470000400330000004000818048000201490070
:100480008B05E900C909DD0083017000010032001D
:1004900013002000C814DE004814DD004709DE0008
:1004A0001200B200C808DE000884700024000700B3
:1004B00001F0A1000CF0A70003E0A800190037002C
:1004C0006120E1001B0032000881BE000280BE00F6
:1004D000F7FF37006150E100FCFF3A0015003700DC
:1004E0000084BE003C0007000083BE000485BE00FF
:1004F0000280BE0038000700844F7500000006002F
:100500000280BE006450E100050036006420E10076
:10051000020036000968A30001003A000880BE000E
:1005200002C0A8004F0678004F05BE004F04BE0071
:1005300000000600F0FF2F00F1FF2700F9FF370051
:1005400081002000618055000B003D000B00200061
:1005500061FE2F000100E1001D0034008281710066
:10056000610164008904D1000884D3000000E80020
:10057000FAFF3A007100200061006400030070007F
:10058000020060000900320061044400E0844C0075
:100590000988A500050032008B05E8006808E10025
:1005A00002003A008904D1000884D300F20F200031
:1005B0000258E10005003D00C75DDD00F907B2000B
:1005C0008980750008008800000006000BF82700ED
:1005D0001B00880000000500C70ADE00F107B2001A
:1005E000F50FB20008003200E1CF420002003200F5
:1005F00002E0A80024000500810F70000100320015
:100600000408050044000500810F700002003A0054
:10061000140005008502E9000000400081C0480088
:10062000FCFF3B0002E0A800240005000080FA0067
:0406300000000600C0
:100A48000000FA000200070056060400000000003B
:100A5800889FBE008A9FBE008C1F78003E0007005A
:100A68004500330003866C006450E1002E0032001C
:100A78006420E100330032006150E1002F003200B1
:100A88006120E1003100320085855500EB07B00098
:100A9800090020000804200005003700080444006D
:100AA80089844C000A0031000603430087834B0009
:100AB8000001530081815B00F8FF33000283BE0010
:100AC8001000A8000804440089844C00F6FF39008F
:100AD800C639DD00830173000100320013002000D5
:100AE8008904D1000884D3000998A30005003200C6
:100AF8000800A7000600A8008904D1000884D300D4
:100B08008B05E8008904D1000884D3000001EB00BC
:100B18000281D2002800070001F0A1000CF0A70014
:100B280003E0A8001D0037006420E1001F00320028
:100B38000881BE000280BE00F7FF37006120E10097
:100B48001A0032006000B800F3FF370000002000F0
:100B580001F82700F0FF37000084BE003C000700C2
:100B68000083BE000485BE000280BE003800070076
:100B7800844F7500000006000280BE006450E1004A
:100B8800050036006420E100020036000968A30071
:100B980001003A000880BE0002C0A8004F06780095
:100BA8004F05BE004F04BE0000000600F0FF2F00F6
:100BB800F1FF2700F9FF3700810020006180550010
:100BC8000B003D000B00200061FE2F000100E1003A
:100BD8001D00340082817100610164008904D10024
:100BE8000884D3000000E800FAFF3A0071002000F2
:100BF8006100640003007000020060000900320018
:100C080061044400E0844C000988A5000500320016
:100C18008B05E8006808E10002003A008904D10069
:100C28000884D300F20F20000258E10005003D00BF
:100C3800C75DDD00F907B2008980750008008800EB
:100C4800000006000BF827001B00880000000500C4
:100C5800C70ADE00F107B200F50FB2000800320043
:100C6800E1CF42000200320002E0A80024000500A3
:100C7800810F7000010032000408050044000500DF
:100C8800810F700002003A00140005008502E90097
:100C98000000400081C04800FCFF3B0002E0A800C3
:0C0CA800240005000080FA000000060097
:100FF4000000FA0087FE07000080FA0000000600E7
:00100400EC
:100A18000000FA0040C2A9004022AE0001003700E1
:100A2800FDFF37004A1288004002AF00010037007E
:100A3800FDFF37004882BF000080FA000000060072
:000A4800AE
:101554000180200000AA280001000900B0187800CA
:10156400B05878006180200060AA280001000900BA
:10157400B01878005180200050AA2800B058780094
:04158400000006005D
:10130C003400F8003600F800801F78002000200020
:10131C000C000900B01F78008460A90051802000E7
:10132C0010C0B30080487800A00120000C00090018
:10133C004F1078004F0078003600F9003400F900A7
:04134C000040060057
:1014F800ECF300004A4800003595000095C700004D
:1015080017C10000DC450000FDDB00006DC30000D2
:0815180072B300003340000033
:101520002B340000014800007F9D0000B045000002
:10153000E7FF0000D942000000000000803F0000EB
:08154000004000001C46000001
:04154800000000009F
:08154C000000000070420000E5
:0200000401F009
:200000000F000000FFFF00000700000082000000A50000005F000000F7000000C30000008C
:00000001FF
